:04000000803114280F
:10000800803120007F08F200141E0E2880316A20FB
:10001800803110288131C52172082000FF000900B5
:100028008031162886308400813085002030860093
:100038000030870009308131BB212000813123291C
:1000480027302000AB002B08AC001030F30027301D
:10005800F4002A08F6002908F5008031D5208031FF
:1000680074082000AA007308A90081316921803131
:100078000A30F3000030F40020002A08F6002908AE
:10008800F5008031D520803173088131012180311C
:100098002000AB002C08860087012B088100013066
:1000A800AC020A30F3000030F4002A08F6002908F0
:1000B800F5008031A120803174082000AA0073085F
:1000C800A90029082A04031908003C2822008E10D8
:1000D8000130F1002000280A7228F135890B7128B7
:1000E800710881319721803120002808203E860040
:1000F8008701010881319721803122008E14200068
:100108002808013E0F39F1007108A8002030860048
:1001180087010430203E840085010430F10012007C
:100128001E00F10B9328EF3029009B007830F10076
:1001380071089A07200014120800F801F9017308E1
:1001480074040319D028FA01FA0AF41BB5280130FF
:10015800F335F40D890BAC280130F7007708FA075E
:10016800A9280130F835F90D890BB62874087602EC
:10017800031DC02873087502031CC7287308F502FD
:100188007408F63B78140130F436F30C890BC82850
:100198000130FA02031DB5287908F4007808F30045
:1001A8000800730874040319FC28F801F80AF41B02
:1001B800E7280130F335F40D890BDE280130F7000C
:1001C8007708F807DB2874087602031DED28730802
:1001D8007502031CF3287308F5027408F63B013016
:1001E800F436F30C890BF4280130F802031DE728D4
:1001F8007608F4007508F3000800F3001729C030EA
:100208000800F9300800A4300800B0300800993020
:1002180008009230080082300800F830080080306A
:10022800080090300800730884000A30040203189C
:10023800212981310435433E8200FF300800200027
:10024800AF01B00181318F21813181315721813155
:1002580020003008AA002F08A9008031242081310D
:1002680001302000AF070030B03D0B30AE006230E7
:10027800AD00AD0B3D29AE0B3D2900002C29813185
:1002880003298131052981310729813109298131E2
:100298000B2981310D2981310F29813111298131B2
:1002A8001329813115298131B421813181317B2193
:1002B800813181319F2181318131C1212000141286
:1002C800210014160B178B170800FF30F300730872
:1002D8002000A400FF30F3007308A500FF30F300EE
:1002E8007308A600FF30F3007308A70008008131E7
:1002F800A621813110303D00A0001130A2008131CB
:10030800AD210800FF34FF34FF34FF34FF34FF34DD
:10031800FF34FF340134FC3021009905783099040A
:100328001A1808009429F000240095137008910009
:10033800141808009C2940302400940022309500AD
:100348009201080055303C008F00AA308F000F1032
:10035800080055303C008F00AA308F000F140800A9
:1003680021000E108E100E1122008E140800FE00BF
:1003780012001E00FE0BBC290034013029009C002D
:0603880008000000C52979
:020000040001F9
:06000E00DC3FFF3F9F3FB5
:00000001FF
